{
  "_format": "hh-sol-artifact-1",
  "contractName": "ReviewNFT",
  "sourceName": "contracts/ReviewNFT.sol",
  "abi": [
    {
      "inputs": [],
      "stateMutability": "nonpayable",
      "type": "constructor"
    },
    {
      "inputs": [
        {
          "internalType": "address",
          "name": "sender",
          "type": "address"
        },
        {
          "internalType": "uint256",
          "name": "tokenId",
          "type": "uint256"
        },
        {
          "internalType": "address",
          "name": "owner",
          "type": "address"
        }
      ],
      "name": "ERC721IncorrectOwner",
      "type": "error"
    },
    {
      "inputs": [
        {
          "internalType": "address",
          "name": "operator",
          "type": "address"
        },
        {
          "internalType": "uint256",
          "name": "tokenId",
          "type": "uint256"
        }
      ],
      "name": "ERC721InsufficientApproval",
      "type": "error"
    },
    {
      "inputs": [
        {
          "internalType": "address",
          "name": "approver",
          "type": "address"
        }
      ],
      "name": "ERC721InvalidApprover",
      "type": "error"
    },
    {
      "inputs": [
        {
          "internalType": "address",
          "name": "operator",
          "type": "address"
        }
      ],
      "name": "ERC721InvalidOperator",
      "type": "error"
    },
    {
      "inputs": [
        {
          "internalType": "address",
          "name": "owner",
          "type": "address"
        }
      ],
      "name": "ERC721InvalidOwner",
      "type": "error"
    },
    {
      "inputs": [
        {
          "internalType": "address",
          "name": "receiver",
          "type": "address"
        }
      ],
      "name": "ERC721InvalidReceiver",
      "type": "error"
    },
    {
      "inputs": [
        {
          "internalType": "address",
          "name": "sender",
          "type": "address"
        }
      ],
      "name": "ERC721InvalidSender",
      "type": "error"
    },
    {
      "inputs": [
        {
          "internalType": "uint256",
          "name": "tokenId",
          "type": "uint256"
        }
      ],
      "name": "ERC721NonexistentToken",
      "type": "error"
    },
    {
      "inputs": [
        {
          "internalType": "address",
          "name": "owner",
          "type": "address"
        }
      ],
      "name": "OwnableInvalidOwner",
      "type": "error"
    },
    {
      "inputs": [
        {
          "internalType": "address",
          "name": "account",
          "type": "address"
        }
      ],
      "name": "OwnableUnauthorizedAccount",
      "type": "error"
    },
    {
      "anonymous": false,
      "inputs": [
        {
          "indexed": true,
          "internalType": "address",
          "name": "owner",
          "type": "address"
        },
        {
          "indexed": true,
          "internalType": "address",
          "name": "approved",
          "type": "address"
        },
        {
          "indexed": true,
          "internalType": "uint256",
          "name": "tokenId",
          "type": "uint256"
        }
      ],
      "name": "Approval",
      "type": "event"
    },
    {
      "anonymous": false,
      "inputs": [
        {
          "indexed": true,
          "internalType": "address",
          "name": "owner",
          "type": "address"
        },
        {
          "indexed": true,
          "internalType": "address",
          "name": "operator",
          "type": "address"
        },
        {
          "indexed": false,
          "internalType": "bool",
          "name": "approved",
          "type": "bool"
        }
      ],
      "name": "ApprovalForAll",
      "type": "event"
    },
    {
      "anonymous": false,
      "inputs": [
        {
          "indexed": false,
          "internalType": "uint256",
          "name": "_fromTokenId",
          "type": "uint256"
        },
        {
          "indexed": false,
          "internalType": "uint256",
          "name": "_toTokenId",
          "type": "uint256"
        }
      ],
      "name": "BatchMetadataUpdate",
      "type": "event"
    },
    {
      "anonymous": false,
      "inputs": [
        {
          "indexed": false,
          "internalType": "uint256",
          "name": "_tokenId",
          "type": "uint256"
        }
      ],
      "name": "MetadataUpdate",
      "type": "event"
    },
    {
      "anonymous": false,
      "inputs": [
        {
          "indexed": true,
          "internalType": "address",
          "name": "previousOwner",
          "type": "address"
        },
        {
          "indexed": true,
          "internalType": "address",
          "name": "newOwner",
          "type": "address"
        }
      ],
      "name": "OwnershipTransferred",
      "type": "event"
    },
    {
      "anonymous": false,
      "inputs": [
        {
          "indexed": true,
          "internalType": "uint256",
          "name": "tokenId",
          "type": "uint256"
        },
        {
          "indexed": true,
          "internalType": "address",
          "name": "reviewer",
          "type": "address"
        },
        {
          "indexed": false,
          "internalType": "string",
          "name": "placeId",
          "type": "string"
        },
        {
          "indexed": false,
          "internalType": "uint8",
          "name": "rating",
          "type": "uint8"
        }
      ],
      "name": "ReviewMinted",
      "type": "event"
    },
    {
      "anonymous": false,
      "inputs": [
        {
          "indexed": true,
          "internalType": "address",
          "name": "from",
          "type": "address"
        },
        {
          "indexed": true,
          "internalType": "address",
          "name": "to",
          "type": "address"
        },
        {
          "indexed": true,
          "internalType": "uint256",
          "name": "tokenId",
          "type": "uint256"
        }
      ],
      "name": "Transfer",
      "type": "event"
    },
    {
      "inputs": [
        {
          "internalType": "address",
          "name": "to",
          "type": "address"
        },
        {
          "internalType": "uint256",
          "name": "tokenId",
          "type": "uint256"
        }
      ],
      "name": "approve",
      "outputs": [],
      "stateMutability": "nonpayable",
      "type": "function"
    },
    {
      "inputs": [
        {
          "internalType": "address",
          "name": "owner",
          "type": "address"
        }
      ],
      "name": "balanceOf",
      "outputs": [
        {
          "internalType": "uint256",
          "name": "",
          "type": "uint256"
        }
      ],
      "stateMutability": "view",
      "type": "function"
    },
    {
      "inputs": [
        {
          "internalType": "uint256",
          "name": "tokenId",
          "type": "uint256"
        }
      ],
      "name": "getApproved",
      "outputs": [
        {
          "internalType": "address",
          "name": "",
          "type": "address"
        }
      ],
      "stateMutability": "view",
      "type": "function"
    },
    {
      "inputs": [
        {
          "internalType": "string",
          "name": "placeId",
          "type": "string"
        }
      ],
      "name": "getPlaceReviews",
      "outputs": [
        {
          "internalType": "uint256[]",
          "name": "",
          "type": "uint256[]"
        }
      ],
      "stateMutability": "view",
      "type": "function"
    },
    {
      "inputs": [
        {
          "internalType": "uint256",
          "name": "tokenId",
          "type": "uint256"
        }
      ],
      "name": "getReview",
      "outputs": [
        {
          "components": [
            {
              "internalType": "uint256",
              "name": "tokenId",
              "type": "uint256"
            },
            {
              "internalType": "string",
              "name": "placeId",
              "type": "string"
            },
            {
              "internalType": "uint8",
              "name": "rating",
              "type": "uint8"
            },
            {
              "internalType": "string",
              "name": "comment",
              "type": "string"
            },
            {
              "internalType": "string[]",
              "name": "photos",
              "type": "string[]"
            },
            {
              "internalType": "address",
              "name": "reviewer",
              "type": "address"
            },
            {
              "internalType": "uint256",
              "name": "createdAt",
              "type": "uint256"
            }
          ],
          "internalType": "struct ReviewNFT.Review",
          "name": "",
          "type": "tuple"
        }
      ],
      "stateMutability": "view",
      "type": "function"
    },
    {
      "inputs": [
        {
          "internalType": "address",
          "name": "owner",
          "type": "address"
        },
        {
          "internalType": "address",
          "name": "operator",
          "type": "address"
        }
      ],
      "name": "isApprovedForAll",
      "outputs": [
        {
          "internalType": "bool",
          "name": "",
          "type": "bool"
        }
      ],
      "stateMutability": "view",
      "type": "function"
    },
    {
      "inputs": [
        {
          "internalType": "string",
          "name": "placeId",
          "type": "string"
        },
        {
          "internalType": "uint8",
          "name": "rating",
          "type": "uint8"
        },
        {
          "internalType": "string",
          "name": "comment",
          "type": "string"
        },
        {
          "internalType": "string[]",
          "name": "photos",
          "type": "string[]"
        }
      ],
      "name": "mintReview",
      "outputs": [
        {
          "internalType": "uint256",
          "name": "",
          "type": "uint256"
        }
      ],
      "stateMutability": "nonpayable",
      "type": "function"
    },
    {
      "inputs": [],
      "name": "name",
      "outputs": [
        {
          "internalType": "string",
          "name": "",
          "type": "string"
        }
      ],
      "stateMutability": "view",
      "type": "function"
    },
    {
      "inputs": [],
      "name": "owner",
      "outputs": [
        {
          "internalType": "address",
          "name": "",
          "type": "address"
        }
      ],
      "stateMutability": "view",
      "type": "function"
    },
    {
      "inputs": [
        {
          "internalType": "uint256",
          "name": "tokenId",
          "type": "uint256"
        }
      ],
      "name": "ownerOf",
      "outputs": [
        {
          "internalType": "address",
          "name": "",
          "type": "address"
        }
      ],
      "stateMutability": "view",
      "type": "function"
    },
    {
      "inputs": [
        {
          "internalType": "string",
          "name": "",
          "type": "string"
        },
        {
          "internalType": "uint256",
          "name": "",
          "type": "uint256"
        }
      ],
      "name": "placeReviews",
      "outputs": [
        {
          "internalType": "uint256",
          "name": "",
          "type": "uint256"
        }
      ],
      "stateMutability": "view",
      "type": "function"
    },
    {
      "inputs": [],
      "name": "renounceOwnership",
      "outputs": [],
      "stateMutability": "nonpayable",
      "type": "function"
    },
    {
      "inputs": [
        {
          "internalType": "uint256",
          "name": "",
          "type": "uint256"
        }
      ],
      "name": "reviews",
      "outputs": [
        {
          "internalType": "uint256",
          "name": "tokenId",
          "type": "uint256"
        },
        {
          "internalType": "string",
          "name": "placeId",
          "type": "string"
        },
        {
          "internalType": "uint8",
          "name": "rating",
          "type": "uint8"
        },
        {
          "internalType": "string",
          "name": "comment",
          "type": "string"
        },
        {
          "internalType": "address",
          "name": "reviewer",
          "type": "address"
        },
        {
          "internalType": "uint256",
          "name": "createdAt",
          "type": "uint256"
        }
      ],
      "stateMutability": "view",
      "type": "function"
    },
    {
      "inputs": [
        {
          "internalType": "address",
          "name": "from",
          "type": "address"
        },
        {
          "internalType": "address",
          "name": "to",
          "type": "address"
        },
        {
          "internalType": "uint256",
          "name": "tokenId",
          "type": "uint256"
        }
      ],
      "name": "safeTransferFrom",
      "outputs": [],
      "stateMutability": "nonpayable",
      "type": "function"
    },
    {
      "inputs": [
        {
          "internalType": "address",
          "name": "from",
          "type": "address"
        },
        {
          "internalType": "address",
          "name": "to",
          "type": "address"
        },
        {
          "internalType": "uint256",
          "name": "tokenId",
          "type": "uint256"
        },
        {
          "internalType": "bytes",
          "name": "data",
          "type": "bytes"
        }
      ],
      "name": "safeTransferFrom",
      "outputs": [],
      "stateMutability": "nonpayable",
      "type": "function"
    },
    {
      "inputs": [
        {
          "internalType": "address",
          "name": "operator",
          "type": "address"
        },
        {
          "internalType": "bool",
          "name": "approved",
          "type": "bool"
        }
      ],
      "name": "setApprovalForAll",
      "outputs": [],
      "stateMutability": "nonpayable",
      "type": "function"
    },
    {
      "inputs": [
        {
          "internalType": "bytes4",
          "name": "interfaceId",
          "type": "bytes4"
        }
      ],
      "name": "supportsInterface",
      "outputs": [
        {
          "internalType": "bool",
          "name": "",
          "type": "bool"
        }
      ],
      "stateMutability": "view",
      "type": "function"
    },
    {
      "inputs": [],
      "name": "symbol",
      "outputs": [
        {
          "internalType": "string",
          "name": "",
          "type": "string"
        }
      ],
      "stateMutability": "view",
      "type": "function"
    },
    {
      "inputs": [
        {
          "internalType": "uint256",
          "name": "tokenId",
          "type": "uint256"
        }
      ],
      "name": "tokenURI",
      "outputs": [
        {
          "internalType": "string",
          "name": "",
          "type": "string"
        }
      ],
      "stateMutability": "view",
      "type": "function"
    },
    {
      "inputs": [
        {
          "internalType": "address",
          "name": "from",
          "type": "address"
        },
        {
          "internalType": "address",
          "name": "to",
          "type": "address"
        },
        {
          "internalType": "uint256",
          "name": "tokenId",
          "type": "uint256"
        }
      ],
      "name": "transferFrom",
      "outputs": [],
      "stateMutability": "nonpayable",
      "type": "function"
    },
    {
      "inputs": [
        {
          "internalType": "address",
          "name": "newOwner",
          "type": "address"
        }
      ],
      "name": "transferOwnership",
      "outputs": [],
      "stateMutability": "nonpayable",
      "type": "function"
    }
  ],
  "bytecode": "0x60806040523480156200001157600080fd5b50336040518060400160405280600b81526020016a506c61636552657669657760a81b81525060405180604001604052806004815260200163282922ab60e11b8152508160009081620000659190620001af565b506001620000748282620001af565b5050506001600160a01b038116620000a657604051631e4fbdf760e01b81526000600482015260240160405180910390fd5b620000b181620000b8565b506200027b565b600780546001600160a01b038381166001600160a01b0319831681179093556040519116919082907f8be0079c531659141344cd1fd0a4f28419497f9722a3daafe3b4186f6b6457e090600090a35050565b634e487b7160e01b600052604160045260246000fd5b600181811c908216806200013557607f821691505b6020821081036200015657634e487b7160e01b600052602260045260246000fd5b50919050565b601f821115620001aa57600081815260208120601f850160051c81016020861015620001855750805b601f850160051c820191505b81811015620001a65782815560010162000191565b5050505b505050565b81516001600160401b03811115620001cb57620001cb6200010a565b620001e381620001dc845462000120565b846200015c565b602080601f8311600181146200021b5760008415620002025750858301515b600019600386901b1c1916600185901b178555620001a6565b600085815260208120601f198616915b828110156200024c578886015182559484019460019091019084016200022b565b50858210156200026b5787850151600019600388901b60f8161c191681555b5050505050600190811b01905550565b612671806200028b6000396000f3fe608060405234801561001057600080fd5b50600436106101375760003560e01c806395d89b41116100b8578063b88d4fde1161007c578063b88d4fde1461029a578063c87b56dd146102ad578063e83ddcea146102c0578063e985e9c5146102e5578063ed7400f7146102f8578063f2fde38b1461030b57600080fd5b806395d89b411461022c578063990581b614610234578063a22cb46514610254578063a31e314914610267578063b0101d271461027a57600080fd5b806342842e0e116100ff57806342842e0e146101cc5780636352211e146101df57806370a08231146101f2578063715018a6146102135780638da5cb5b1461021b57600080fd5b806301ffc9a71461013c57806306fdde0314610164578063081812fc14610179578063095ea7b3146101a457806323b872dd146101b9575b600080fd5b61014f61014a366004611bf8565b61031e565b60405190151581526020015b60405180910390f35b61016c61032f565b60405161015b9190611c65565b61018c610187366004611c78565b6103c1565b6040516001600160a01b03909116815260200161015b565b6101b76101b2366004611cad565b6103ea565b005b6101b76101c7366004611cd7565b6103f9565b6101b76101da366004611cd7565b610489565b61018c6101ed366004611c78565b6104a9565b610205610200366004611d13565b6104b4565b60405190815260200161015b565b6101b76104fc565b6007546001600160a01b031661018c565b61016c610510565b610247610242366004611c78565b61051f565b60405161015b9190611d2e565b6101b7610262366004611e07565b610820565b610205610275366004611f02565b61082b565b61028d610288366004611f47565b61086b565b60405161015b9190611f7c565b6101b76102a8366004611fc0565b6108db565b61016c6102bb366004611c78565b6108f3565b6102d36102ce366004611c78565b6108fe565b60405161015b9695949392919061203c565b61014f6102f336600461208f565b610a56565b6102056103063660046120c2565b610a84565b6101b7610319366004611d13565b610d21565b600061032982610d5f565b92915050565b60606000805461033e906121e3565b80601f016020809104026020016040519081016040528092919081815260200182805461036a906121e3565b80156103b75780601f1061038c576101008083540402835291602001916103b7565b820191906000526020600020905b81548152906001019060200180831161039a57829003601f168201915b5050505050905090565b60006103cc82610d84565b506000828152600460205260409020546001600160a01b0316610329565b6103f5828233610dbd565b5050565b6001600160a01b03821661042857604051633250574960e11b8152600060048201526024015b60405180910390fd5b6000610435838333610dca565b9050836001600160a01b0316816001600160a01b031614610483576040516364283d7b60e01b81526001600160a01b038086166004830152602482018490528216604482015260640161041f565b50505050565b6104a4838383604051806020016040528060008152506108db565b505050565b600061032982610d84565b60006001600160a01b0382166104e0576040516322718ad960e21b81526000600482015260240161041f565b506001600160a01b031660009081526003602052604090205490565b610504610ec3565b61050e6000610ef0565b565b60606001805461033e906121e3565b61056b6040518060e001604052806000815260200160608152602001600060ff168152602001606081526020016060815260200160006001600160a01b03168152602001600081525090565b6000828152600260205260409020546001600160a01b03166105c65760405162461bcd60e51b8152602060048201526014602482015273151bdad95b88191bd95cc81b9bdd08195e1a5cdd60621b604482015260640161041f565b600960008381526020019081526020016000206040518060e0016040529081600082015481526020016001820180546105fe906121e3565b80601f016020809104026020016040519081016040528092919081815260200182805461062a906121e3565b80156106775780601f1061064c57610100808354040283529160200191610677565b820191906000526020600020905b81548152906001019060200180831161065a57829003601f168201915b5050509183525050600282015460ff1660208201526003820180546040909201916106a1906121e3565b80601f01602080910402602001604051908101604052809291908181526020018280546106cd906121e3565b801561071a5780601f106106ef5761010080835404028352916020019161071a565b820191906000526020600020905b8154815290600101906020018083116106fd57829003601f168201915b5050505050815260200160048201805480602002602001604051908101604052809291908181526020016000905b828210156107f4578382906000526020600020018054610767906121e3565b80601f0160208091040260200160405190810160405280929190818152602001828054610793906121e3565b80156107e05780601f106107b5576101008083540402835291602001916107e0565b820191906000526020600020905b8154815290600101906020018083116107c357829003601f168201915b505050505081526020019060010190610748565b5050509082525060058201546001600160a01b0316602082015260069091015460409091015292915050565b6103f5338383610f42565b8151602081840181018051600a82529282019185019190912091905280548290811061085657600080fd5b90600052602060002001600091509150505481565b6060600a8260405161087d9190612239565b90815260408051918290036020908101832080548083028501830190935282845291908301828280156108cf57602002820191906000526020600020905b8154815260200190600101908083116108bb575b50505050509050919050565b6108e68484846103f9565b6104833385858585610fe1565b60606103298261110c565b60096020526000908152604090208054600182018054919291610920906121e3565b80601f016020809104026020016040519081016040528092919081815260200182805461094c906121e3565b80156109995780601f1061096e57610100808354040283529160200191610999565b820191906000526020600020905b81548152906001019060200180831161097c57829003601f168201915b5050506002840154600385018054949560ff9092169491935091506109bd906121e3565b80601f01602080910402602001604051908101604052809291908181526020018280546109e9906121e3565b8015610a365780601f10610a0b57610100808354040283529160200191610a36565b820191906000526020600020905b815481529060010190602001808311610a1957829003601f168201915b50505050600583015460069093015491926001600160a01b031691905086565b6001600160a01b03918216600090815260056020908152604080832093909416825291909152205460ff1690565b600080855111610ad65760405162461bcd60e51b815260206004820152601860248201527f506c6163652049442063616e6e6f7420626520656d7074790000000000000000604482015260640161041f565b60018460ff1610158015610aee575060058460ff1611155b610b3a5760405162461bcd60e51b815260206004820152601e60248201527f526174696e67206d757374206265206265747765656e203120616e6420350000604482015260640161041f565b6000835111610b8b5760405162461bcd60e51b815260206004820152601760248201527f436f6d6d656e742063616e6e6f7420626520656d707479000000000000000000604482015260640161041f565b60088054906000610b9b8361226b565b9091555050600854610bad338261121d565b6040805160e081018252828152602080820189815260ff89168385015260608301889052608083018790523360a08401524260c0840152600085815260099092529290208151815591519091906001820190610c0990826122ca565b50604082015160028201805460ff191660ff90921691909117905560608201516003820190610c3890826122ca565b5060808201518051610c54916004840191602090910190611b25565b5060a08201516005820180546001600160a01b0319166001600160a01b0390921691909117905560c090910151600690910155604051600a90610c98908890612239565b9081526040516020918190038201902080546001810182556000918252918120909101829055610cc782611237565b9050610cd3828261156a565b336001600160a01b0316827f3fd6f058ff5ab687634ef5efd35c464af36b374d40f0920cfc2c46a85a35d1d18989604051610d0f92919061238a565b60405180910390a35095945050505050565b610d29610ec3565b6001600160a01b038116610d5357604051631e4fbdf760e01b81526000600482015260240161041f565b610d5c81610ef0565b50565b60006001600160e01b03198216632483248360e11b14806103295750610329826115ba565b6000818152600260205260408120546001600160a01b03168061032957604051637e27328960e01b81526004810184905260240161041f565b6104a4838383600161160a565b6000828152600260205260408120546001600160a01b0390811690831615610df757610df7818486611710565b6001600160a01b03811615610e3557610e1460008560008061160a565b6001600160a01b038116600090815260036020526040902080546000190190555b6001600160a01b03851615610e64576001600160a01b0385166000908152600360205260409020805460010190555b60008481526002602052604080822080546001600160a01b0319166001600160a01b0389811691821790925591518793918516917fddf252ad1be2c89b69c2b068fc378daa952ba7f163c4a11628f55a4df523b3ef91a4949350505050565b6007546001600160a01b0316331461050e5760405163118cdaa760e01b815233600482015260240161041f565b600780546001600160a01b038381166001600160a01b0319831681179093556040519116919082907f8be0079c531659141344cd1fd0a4f28419497f9722a3daafe3b4186f6b6457e090600090a35050565b6001600160a01b038216610f7457604051630b61174360e31b81526001600160a01b038316600482015260240161041f565b6001600160a01b03838116600081815260056020908152604080832094871680845294825291829020805460ff191686151590811790915591519182527f17307eab39ab6107e8899845ad3d59bd9653f200f220920489ca2b5937696c31910160405180910390a3505050565b6001600160a01b0383163b1561110557604051630a85bd0160e11b81526001600160a01b0384169063150b7a02906110239088908890879087906004016123af565b6020604051808303816000875af192505050801561105e575060408051601f3d908101601f1916820190925261105b918101906123ec565b60015b6110c7573d80801561108c576040519150601f19603f3d011682016040523d82523d6000602084013e611091565b606091505b5080516000036110bf57604051633250574960e11b81526001600160a01b038516600482015260240161041f565b805160208201fd5b6001600160e01b03198116630a85bd0160e11b1461110357604051633250574960e11b81526001600160a01b038516600482015260240161041f565b505b5050505050565b606061111782610d84565b5060008281526006602052604081208054611131906121e3565b80601f016020809104026020016040519081016040528092919081815260200182805461115d906121e3565b80156111aa5780601f1061117f576101008083540402835291602001916111aa565b820191906000526020600020905b81548152906001019060200180831161118d57829003601f168201915b5050505050905060006111c860408051602081019091526000815290565b905080516000036111da575092915050565b81511561120c5780826040516020016111f4929190612409565b60405160208183030381529060405292505050919050565b61121584611774565b949350505050565b6103f58282604051806020016040528060008152506117d9565b6000818152600960209081526040808320815160e0810190925280548252600181018054606095948401919061126c906121e3565b80601f0160208091040260200160405190810160405280929190818152602001828054611298906121e3565b80156112e55780601f106112ba576101008083540402835291602001916112e5565b820191906000526020600020905b8154815290600101906020018083116112c857829003601f168201915b5050509183525050600282015460ff16602082015260038201805460409092019161130f906121e3565b80601f016020809104026020016040519081016040528092919081815260200182805461133b906121e3565b80156113885780601f1061135d57610100808354040283529160200191611388565b820191906000526020600020905b81548152906001019060200180831161136b57829003601f168201915b5050505050815260200160048201805480602002602001604051908101604052809291908181526020016000905b828210156114625783829060005260206000200180546113d5906121e3565b80601f0160208091040260200160405190810160405280929190818152602001828054611401906121e3565b801561144e5780601f106114235761010080835404028352916020019161144e565b820191906000526020600020905b81548152906001019060200180831161143157829003601f168201915b5050505050815260200190600101906113b6565b5050509082525060058201546001600160a01b031660208201526006909101546040909101529050611543611496846117f1565b82606001516000846080015151116114bd57604051806020016040528060008152506114dd565b83608001516000815181106114d4576114d4612438565b60200260200101515b6114ed856040015160ff166117f1565b60208087015160405161150496959493920161244e565b60408051601f198184030190528181019052601881527f65794a755957316c496a6f69556d563261575633496e303d0000000000000000602082015290565b6040516020016115539190612592565b604051602081830303815290604052915050919050565b600082815260066020526040902061158282826122ca565b506040518281527ff8e1a15aba9398e019f0b49df1a4fde98ee17ae345cb5f6b5e2c27f5033e8ce79060200160405180910390a15050565b60006001600160e01b031982166380ac58cd60e01b14806115eb57506001600160e01b03198216635b5e139f60e01b145b8061032957506301ffc9a760e01b6001600160e01b0319831614610329565b808061161e57506001600160a01b03821615155b156116e057600061162e84610d84565b90506001600160a01b0383161580159061165a5750826001600160a01b0316816001600160a01b031614155b801561166d575061166b8184610a56565b155b156116965760405163a9fbf51f60e01b81526001600160a01b038416600482015260240161041f565b81156116de5783856001600160a01b0316826001600160a01b03167f8c5be1e5ebec7d5bd14f71427d1e84f3dd0314c0f7b2291e5b200ac8c7c3b92560405160405180910390a45b505b5050600090815260046020526040902080546001600160a01b0319166001600160a01b0392909216919091179055565b61171b8383836118f2565b6104a4576001600160a01b03831661174957604051637e27328960e01b81526004810182905260240161041f565b60405163177e802f60e01b81526001600160a01b03831660048201526024810182905260440161041f565b606061177f82610d84565b50600061179760408051602081019091526000815290565b905060008151116117b757604051806020016040528060008152506117d2565b806117c184611955565b604051602001611553929190612409565b9392505050565b6117e383836119e8565b6104a4336000858585610fe1565b6060816000036118185750506040805180820190915260018152600360fc1b602082015290565b8160005b8115611842578061182c8161226b565b915061183b9050600a836125ed565b915061181c565b60008167ffffffffffffffff81111561185d5761185d611e43565b6040519080825280601f01601f191660200182016040528015611887576020820181803683370190505b5090505b84156112155761189c600183612601565b91506118a9600a86612614565b6118b4906030612628565b60f81b8183815181106118c9576118c9612438565b60200101906001600160f81b031916908160001a9053506118eb600a866125ed565b945061188b565b60006001600160a01b038316158015906112155750826001600160a01b0316846001600160a01b0316148061192c575061192c8484610a56565b806112155750506000908152600460205260409020546001600160a01b03908116911614919050565b6060600061196283611a4d565b600101905060008167ffffffffffffffff81111561198257611982611e43565b6040519080825280601f01601f1916602001820160405280156119ac576020820181803683370190505b5090508181016020015b600019016f181899199a1a9b1b9c1cb0b131b232b360811b600a86061a8153600a85049450846119b657509392505050565b6001600160a01b038216611a1257604051633250574960e11b81526000600482015260240161041f565b6000611a2083836000610dca565b90506001600160a01b038116156104a4576040516339e3563760e11b81526000600482015260240161041f565b60008072184f03e93ff9f4daa797ed6e38ed64bf6a1f0160401b8310611a8c5772184f03e93ff9f4daa797ed6e38ed64bf6a1f0160401b830492506040015b6d04ee2d6d415b85acef81000000008310611ab8576d04ee2d6d415b85acef8100000000830492506020015b662386f26fc100008310611ad657662386f26fc10000830492506010015b6305f5e1008310611aee576305f5e100830492506008015b6127108310611b0257612710830492506004015b60648310611b14576064830492506002015b600a83106103295760010192915050565b828054828255906000526020600020908101928215611b6b579160200282015b82811115611b6b5782518290611b5b90826122ca565b5091602001919060010190611b45565b50611b77929150611b7b565b5090565b80821115611b77576000611b8f8282611b98565b50600101611b7b565b508054611ba4906121e3565b6000825580601f10611bb4575050565b601f016020900490600052602060002090810190610d5c91905b80821115611b775760008155600101611bce565b6001600160e01b031981168114610d5c57600080fd5b600060208284031215611c0a57600080fd5b81356117d281611be2565b60005b83811015611c30578181015183820152602001611c18565b50506000910152565b60008151808452611c51816020860160208601611c15565b601f01601f19169290920160200192915050565b6020815260006117d26020830184611c39565b600060208284031215611c8a57600080fd5b5035919050565b80356001600160a01b0381168114611ca857600080fd5b919050565b60008060408385031215611cc057600080fd5b611cc983611c91565b946020939093013593505050565b600080600060608486031215611cec57600080fd5b611cf584611c91565b9250611d0360208501611c91565b9150604084013590509250925092565b600060208284031215611d2557600080fd5b6117d282611c91565b600060208083528351818401528084015160e06040850152611d54610100850182611c39565b905060ff60408601511660608501526060850151601f1980868403016080870152611d7f8383611c39565b6080880151878203830160a089015280518083529194508501925084840190600581901b8501860160005b82811015611dd65784878303018452611dc4828751611c39565b95880195938801939150600101611daa565b5060a08a01516001600160a01b03811660c08b0152965060c08a015160e08a01528097505050505050505092915050565b60008060408385031215611e1a57600080fd5b611e2383611c91565b915060208301358015158114611e3857600080fd5b809150509250929050565b634e487b7160e01b600052604160045260246000fd5b604051601f8201601f1916810167ffffffffffffffff81118282101715611e8257611e82611e43565b604052919050565b600067ffffffffffffffff831115611ea457611ea4611e43565b611eb7601f8401601f1916602001611e59565b9050828152838383011115611ecb57600080fd5b828260208301376000602084830101529392505050565b600082601f830112611ef357600080fd5b6117d283833560208501611e8a565b60008060408385031215611f1557600080fd5b823567ffffffffffffffff811115611f2c57600080fd5b611f3885828601611ee2565b95602094909401359450505050565b600060208284031215611f5957600080fd5b813567ffffffffffffffff811115611f7057600080fd5b61121584828501611ee2565b6020808252825182820181905260009190848201906040850190845b81811015611fb457835183529284019291840191600101611f98565b50909695505050505050565b60008060008060808587031215611fd657600080fd5b611fdf85611c91565b9350611fed60208601611c91565b925060408501359150606085013567ffffffffffffffff81111561201057600080fd5b8501601f8101871361202157600080fd5b61203087823560208401611e8a565b91505092959194509250565b86815260c06020820152600061205560c0830188611c39565b60ff8716604084015282810360608401526120708187611c39565b6001600160a01b03959095166080840152505060a00152949350505050565b600080604083850312156120a257600080fd5b6120ab83611c91565b91506120b960208401611c91565b90509250929050565b600080600080608085870312156120d857600080fd5b843567ffffffffffffffff808211156120f057600080fd5b6120fc88838901611ee2565b9550602091508187013560ff8116811461211557600080fd5b945060408701358181111561212957600080fd5b61213589828a01611ee2565b94505060608701358181111561214a57600080fd5b8701601f8101891361215b57600080fd5b80358281111561216d5761216d611e43565b8060051b61217c858201611e59565b918252828101850191858101908c84111561219657600080fd5b86850192505b838310156121d2578235868111156121b45760008081fd5b6121c28e8983890101611ee2565b835250918601919086019061219c565b999c989b5096995050505050505050565b600181811c908216806121f757607f821691505b60208210810361221757634e487b7160e01b600052602260045260246000fd5b50919050565b6000815161222f818560208601611c15565b9290920192915050565b6000825161224b818460208701611c15565b9190910192915050565b634e487b7160e01b600052601160045260246000fd5b60006001820161227d5761227d612255565b5060010190565b601f8211156104a457600081815260208120601f850160051c810160208610156122ab5750805b601f850160051c820191505b81811015611103578281556001016122b7565b815167ffffffffffffffff8111156122e4576122e4611e43565b6122f8816122f284546121e3565b84612284565b602080601f83116001811461232d57600084156123155750858301515b600019600386901b1c1916600185901b178555611103565b600085815260208120601f198616915b8281101561235c5788860151825594840194600190910190840161233d565b508582101561237a5787850151600019600388901b60f8161c191681555b5050505050600190811b01905550565b60408152600061239d6040830185611c39565b905060ff831660208301529392505050565b6001600160a01b03858116825284166020820152604081018390526080606082018190526000906123e290830184611c39565b9695505050505050565b6000602082840312156123fe57600080fd5b81516117d281611be2565b6000835161241b818460208801611c15565b83519083019061242f818360208801611c15565b01949350505050565b634e487b7160e01b600052603260045260246000fd5b707b226e616d65223a22526576696577202360781b8152855160009061247b816011850160208b01611c15565b701116113232b9b1b934b83a34b7b7111d1160791b60119184019182015286516124ac816022840160208b01611c15565b6a11161134b6b0b3b2911d1160a91b6022929091019182015285516124d881602d840160208a01611c15565b7f222c2261747472696275746573223a5b7b2274726169745f74797065223a2252602d92909101918201526e30ba34b7339116113b30b63ab2911d60891b604d820152845161252e81605c840160208901611c15565b7f7d2c7b2274726169745f74797065223a22506c616365204944222c2276616c75605c92909101918201526332911d1160e11b607c820152612586612576608083018661221d565b63227d5d7d60e01b815260040190565b98975050505050505050565b7f646174613a6170706c69636174696f6e2f6a736f6e3b6261736536342c0000008152600082516125ca81601d850160208701611c15565b91909101601d0192915050565b634e487b7160e01b600052601260045260246000fd5b6000826125fc576125fc6125d7565b500490565b8181038181111561032957610329612255565b600082612623576126236125d7565b500690565b808201808211156103295761032961225556fea26469706673582212207af70992566e740301d66e08fce375e903a390e77f43ca490822b228f71c5ff864736f6c63430008140033",
  "linkReferences": {},
  "deployedLinkReferences": {}
}