{
  "_format": "hh-sol-artifact-1",
  "contractName": "EventContract",
  "sourceName": "contracts/EventContract.sol",
  "abi": [
    {
      "anonymous": false,
      "inputs": [
        {
          "indexed": true,
          "internalType": "uint256",
          "name": "eventId",
          "type": "uint256"
        },
        {
          "indexed": true,
          "internalType": "address",
          "name": "creator",
          "type": "address"
        },
        {
          "indexed": false,
          "internalType": "string",
          "name": "title",
          "type": "string"
        },
        {
          "indexed": false,
          "internalType": "uint256",
          "name": "date",
          "type": "uint256"
        }
      ],
      "name": "EventCreated",
      "type": "event"
    },
    {
      "inputs": [
        {
          "internalType": "string",
          "name": "title",
          "type": "string"
        },
        {
          "internalType": "string",
          "name": "description",
          "type": "string"
        },
        {
          "internalType": "uint256",
          "name": "date",
          "type": "uint256"
        },
        {
          "internalType": "string",
          "name": "placeId",
          "type": "string"
        }
      ],
      "name": "createEvent",
      "outputs": [
        {
          "internalType": "uint256",
          "name": "",
          "type": "uint256"
        }
      ],
      "stateMutability": "nonpayable",
      "type": "function"
    },
    {
      "inputs": [
        {
          "internalType": "uint256",
          "name": "",
          "type": "uint256"
        }
      ],
      "name": "events",
      "outputs": [
        {
          "internalType": "uint256",
          "name": "id",
          "type": "uint256"
        },
        {
          "internalType": "string",
          "name": "title",
          "type": "string"
        },
        {
          "internalType": "string",
          "name": "description",
          "type": "string"
        },
        {
          "internalType": "uint256",
          "name": "date",
          "type": "uint256"
        },
        {
          "internalType": "string",
          "name": "placeId",
          "type": "string"
        },
        {
          "internalType": "address",
          "name": "creator",
          "type": "address"
        },
        {
          "internalType": "uint256",
          "name": "createdAt",
          "type": "uint256"
        },
        {
          "internalType": "bool",
          "name": "exists",
          "type": "bool"
        }
      ],
      "stateMutability": "view",
      "type": "function"
    },
    {
      "inputs": [
        {
          "internalType": "uint256",
          "name": "eventId",
          "type": "uint256"
        }
      ],
      "name": "getEvent",
      "outputs": [
        {
          "components": [
            {
              "internalType": "uint256",
              "name": "id",
              "type": "uint256"
            },
            {
              "internalType": "string",
              "name": "title",
              "type": "string"
            },
            {
              "internalType": "string",
              "name": "description",
              "type": "string"
            },
            {
              "internalType": "uint256",
              "name": "date",
              "type": "uint256"
            },
            {
              "internalType": "string",
              "name": "placeId",
              "type": "string"
            },
            {
              "internalType": "address",
              "name": "creator",
              "type": "address"
            },
            {
              "internalType": "uint256",
              "name": "createdAt",
              "type": "uint256"
            },
            {
              "internalType": "bool",
              "name": "exists",
              "type": "bool"
            }
          ],
          "internalType": "struct EventContract.Event",
          "name": "",
          "type": "tuple"
        }
      ],
      "stateMutability": "view",
      "type": "function"
    },
    {
      "inputs": [],
      "name": "getEventCount",
      "outputs": [
        {
          "internalType": "uint256",
          "name": "",
          "type": "uint256"
        }
      ],
      "stateMutability": "view",
      "type": "function"
    },
    {
      "inputs": [
        {
          "internalType": "address",
          "name": "user",
          "type": "address"
        }
      ],
      "name": "getUserEvents",
      "outputs": [
        {
          "internalType": "uint256[]",
          "name": "",
          "type": "uint256[]"
        }
      ],
      "stateMutability": "view",
      "type": "function"
    },
    {
      "inputs": [
        {
          "internalType": "address",
          "name": "",
          "type": "address"
        },
        {
          "internalType": "uint256",
          "name": "",
          "type": "uint256"
        }
      ],
      "name": "userEvents",
      "outputs": [
        {
          "internalType": "uint256",
          "name": "",
          "type": "uint256"
        }
      ],
      "stateMutability": "view",
      "type": "function"
    }
  ],
  "bytecode": "0x608060405234801561001057600080fd5b50610d84806100206000396000f3fe608060405234801561001057600080fd5b50600436106100625760003560e01c80630b79143014610067578063171e5ba2146100975780636d1884e0146100b7578063bdfc9893146100d7578063d9e48f5c146100f8578063ff3a0fb614610100575b600080fd5b61007a610075366004610855565b610113565b60405161008e9897969594939291906108b4565b60405180910390f35b6100aa6100a5366004610944565b6102fb565b60405161008e9190610966565b6100ca6100c5366004610855565b610367565b60405161008e91906109aa565b6100ea6100e5366004610a5d565b61062c565b60405190815260200161008e565b6002546100ea565b6100ea61010e366004610b2a565b61065d565b6000602081905290815260409020805460018201805491929161013590610bbc565b80601f016020809104026020016040519081016040528092919081815260200182805461016190610bbc565b80156101ae5780601f10610183576101008083540402835291602001916101ae565b820191906000526020600020905b81548152906001019060200180831161019157829003601f168201915b5050505050908060020180546101c390610bbc565b80601f01602080910402602001604051908101604052809291908181526020018280546101ef90610bbc565b801561023c5780601f106102115761010080835404028352916020019161023c565b820191906000526020600020905b81548152906001019060200180831161021f57829003601f168201915b50505050509080600301549080600401805461025790610bbc565b80601f016020809104026020016040519081016040528092919081815260200182805461028390610bbc565b80156102d05780601f106102a5576101008083540402835291602001916102d0565b820191906000526020600020905b8154815290600101906020018083116102b357829003601f168201915b505050506005830154600684015460079094015492936001600160a01b039091169290915060ff1688565b6001600160a01b03811660009081526001602090815260409182902080548351818402810184019094528084526060939283018282801561035b57602002820191906000526020600020905b815481526020019060010190808311610347575b50505050509050919050565b6103ba604051806101000160405280600081526020016060815260200160608152602001600081526020016060815260200160006001600160a01b03168152602001600081526020016000151581525090565b60008281526020819052604090206007015460ff166104175760405162461bcd60e51b8152602060048201526014602482015273115d995b9d08191bd95cc81b9bdd08195e1a5cdd60621b60448201526064015b60405180910390fd5b600082815260208181526040918290208251610100810190935280548352600181018054919284019161044990610bbc565b80601f016020809104026020016040519081016040528092919081815260200182805461047590610bbc565b80156104c25780601f10610497576101008083540402835291602001916104c2565b820191906000526020600020905b8154815290600101906020018083116104a557829003601f168201915b505050505081526020016002820180546104db90610bbc565b80601f016020809104026020016040519081016040528092919081815260200182805461050790610bbc565b80156105545780601f1061052957610100808354040283529160200191610554565b820191906000526020600020905b81548152906001019060200180831161053757829003601f168201915b505050505081526020016003820154815260200160048201805461057790610bbc565b80601f01602080910402602001604051908101604052809291908181526020018280546105a390610bbc565b80156105f05780601f106105c5576101008083540402835291602001916105f0565b820191906000526020600020905b8154815290600101906020018083116105d357829003601f168201915b505050918352505060058201546001600160a01b031660208201526006820154604082015260079091015460ff16151560609091015292915050565b6001602052816000526040600020818154811061064857600080fd5b90600052602060002001600091509150505481565b6000808551116106a75760405162461bcd60e51b81526020600482015260156024820152745469746c652063616e6e6f7420626520656d70747960581b604482015260640161040e565b4283116106f65760405162461bcd60e51b815260206004820152601a60248201527f44617465206d75737420626520696e2074686520667574757265000000000000604482015260640161040e565b6002805490600061070683610bf6565b90915550506002546040805161010081018252828152602080820189815282840189905260608301889052608083018790523360a08401524260c0840152600160e084018190526000868152928390529390912082518155905191929091908201906107729082610c6c565b50604082015160028201906107879082610c6c565b5060608201516003820155608082015160048201906107a69082610c6c565b5060a08201516005820180546001600160a01b0319166001600160a01b0390921691909117905560c0820151600682015560e0909101516007909101805460ff19169115159190911790553360008181526001602081815260408084208054938401815584529220018390555182907f56acb10c6ecae7e178ece5d22c2f0346efb606427ea6a15f96904d0ceec03d1d90610844908a908990610d2c565b60405180910390a395945050505050565b60006020828403121561086757600080fd5b5035919050565b6000815180845260005b8181101561089457602081850181015186830182015201610878565b506000602082860101526020601f19601f83011685010191505092915050565b60006101008a83528060208401526108ce8184018b61086e565b905082810360408401526108e2818a61086e565b905087606084015282810360808401526108fc818861086e565b6001600160a01b039690961660a0840152505060c0810192909252151560e09091015295945050505050565b80356001600160a01b038116811461093f57600080fd5b919050565b60006020828403121561095657600080fd5b61095f82610928565b9392505050565b6020808252825182820181905260009190848201906040850190845b8181101561099e57835183529284019291840191600101610982565b50909695505050505050565b6020815281516020820152600060208301516101008060408501526109d361012085018361086e565b91506040850151601f19808685030160608701526109f1848361086e565b93506060870151608087015260808701519150808685030160a087015250610a19838261086e565b92505060a0850151610a3660c08601826001600160a01b03169052565b5060c085015160e085015260e0850151610a538286018215159052565b5090949350505050565b60008060408385031215610a7057600080fd5b610a7983610928565b946020939093013593505050565b634e487b7160e01b600052604160045260246000fd5b600082601f830112610aae57600080fd5b813567ffffffffffffffff80821115610ac957610ac9610a87565b604051601f8301601f19908116603f01168101908282118183101715610af157610af1610a87565b81604052838152866020858801011115610b0a57600080fd5b836020870160208301376000602085830101528094505050505092915050565b60008060008060808587031215610b4057600080fd5b843567ffffffffffffffff80821115610b5857600080fd5b610b6488838901610a9d565b95506020870135915080821115610b7a57600080fd5b610b8688838901610a9d565b9450604087013593506060870135915080821115610ba357600080fd5b50610bb087828801610a9d565b91505092959194509250565b600181811c90821680610bd057607f821691505b602082108103610bf057634e487b7160e01b600052602260045260246000fd5b50919050565b600060018201610c1657634e487b7160e01b600052601160045260246000fd5b5060010190565b601f821115610c6757600081815260208120601f850160051c81016020861015610c445750805b601f850160051c820191505b81811015610c6357828155600101610c50565b5050505b505050565b815167ffffffffffffffff811115610c8657610c86610a87565b610c9a81610c948454610bbc565b84610c1d565b602080601f831160018114610ccf5760008415610cb75750858301515b600019600386901b1c1916600185901b178555610c63565b600085815260208120601f198616915b82811015610cfe57888601518255948401946001909101908401610cdf565b5085821015610d1c5787850151600019600388901b60f8161c191681555b5050505050600190811b01905550565b604081526000610d3f604083018561086e565b9050826020830152939250505056fea26469706673582212203846f688b9d3aa6d3d39a3442c75ec5645ca2c8124ddd535dfd90f97fc20e02a64736f6c63430008140033",
  "linkReferences": {},
  "deployedLinkReferences": {}
}